:100000000CEF00F0EE6AEA50E262FCD7E950E162E0
:04001000F9D712000A
:1000180005EEFFF016EE00F003EC00F07DEF00F0C7
:10002800FE000001FF51006E016A00C0D9FF010EF9
:10003800D95CD8A00CD0D906FD0EE8CFFFF5050194
:1000480000F000F0FF2F24EF00F00400F0D7FEC00E
:10005800FFF5050100F000F0FF2F2EEF00F0120071
:10006800E16E040ED96EFA0EE8CFFFF5050100F037
:1000780000F0FF2F3BEF00F00400D92EF4D7E12E5B
:10008800F0D71200E16E040ED96EFA0EE8CFFFF534
:10009800050100F000F0FF2F4DEF00F0D92EF5D745
:1000A800E12EF1D71200FE00040ED96EFA0EE8CF49
:1000B800FFF5050100F000F0FF2F5EEF00F00400EF
:1000C800D92EF4D7FE0EE96E000EEA6EEE06000E8B
:1000D800ED5AEE50ED10D8B41200E6D7F36E040EC8
:1000E800E96EFA0EBDDF0400E92EFBD7F32EF7D731
:1000F800120000F0280EE8CFFFF5050100F000F02F
:10010800FF2F82EF00F0FF0EE8CFFFF500F000F0C0
:10011800FF2F8AEF00F00001FE69FF6915EC00F07F
:10012800FF0E34EC00F00001FE69FF6958EC00F0A6
:10013800FE0E46EC00F00C0E72EC00F00CEF00F036
:00000001FF
