:020000040000FA
:040000006CEF17F09A
:04000800EEEF1EF009
:06002A00D9CFE5FFE1CF94
:10003000D9FF00C0E5FF01C0E5FF02C0E5FF03C036
:10004000E5FF04C0E5FF05C0E5FF06C0E5FF07C00A
:10005000E5FF08C0E5FF09C0E5FF0AC0E5FF0BC0EA
:10006000E5FF0CC0E5FF0DC0E5FF0EC0E5FF0FC0CA
:10007000E5FF10C0E5FF11C0E5FF12C0E5FF13C0AA
:10008000E5FF14C0E5FF15C0E5FF16C0E5FF17C08A
:10009000E5FF18C0E5FF020EDBCF00F0030EDBCF5B
:1000A00001F0040EDBCF02F0050EDBCF03F0060EED
:1000B000DBCF04F0070EDBCF05F0080EDBCF06F038
:1000C000090EDBCF07F00A0EDBCF08F0096A0A6AD7
:1000D00003C0E9FF04C0F3FF0550DFEC1DF00B6E19
:1000E0000B50D8B4F0D10B50250A01E0CDD10C6AE9
:1000F0000D6A0E6A0F6A106A116A032AD8B0042AC0
:10010000D8B0052A03C0E9FF04C0F3FF0550DFECB7
:100110001DF0126E250A15E11250E56E0250E56ED3
:100120000150E56E0050E56E45EC11F0040EE1263D
:10013000092AD8B00A2A032AD8B0042AD8B0052A36
:10014000C7D71250750A07E1010E0F6E032AD8B007
:10015000042AD8B0052A03C0E9FF04C0F3FF055004
:10016000DFEC1DF0126E6C0A08E1010E0C6E032A22
:10017000D8B0042AD8B0052A0AD01250680A07E17C
:10018000010E0E6E032AD8B0042AD8B0052A03C087
:10019000E9FF04C0F3FF0550DFEC1DF0126E730A97
:1001A00003E1010E0D6E3BD01250640A03E10A0E0A
:1001B000106E35D01250780A04E1100E106E116ADC
:1001C0002ED01250580A05E1100E106E010E116E5D
:1001D00026D01250630A02E1106A21D012506F0A31
:1001E00003E1080E106E1BD01250620A03E1020EEA
:1001F000106E15D01250E56E0250E56E0150E56E9E
:100200000050E56E45EC11F0040EE126092AD8B045
:100210000A2A032AD8B0042AD8B0052A59D70D5083
:10022000D8B444D00650030F0D6E000E0720126E96
:10023000000E0820136E0DC006F012C007F013C0A8
:1002400008F0FD0E0D26FF0E122213220DC0E9FF4D
:1002500012C0F3FF1350D5EC1CF00D6EF3CF12F06B
:10026000F4CF13F009C014F00AC015F00DC0E9FF77
:1002700012C0F3FF1350DFEC1DF0166E1650D8B409
:1002800013D11650E56E0250E56E0150E56E005038
:10029000E56E45EC11F0040EE1260D2AD8B0122AC5
:1002A000D8B0132A142AD8B0152AE0D70C5023E06E
:1002B0000650040F0C6E000E07200D6E000E082075
:1002C000126E0CC006F00DC007F012C008F0FC0E54
:1002D0000C26FF0E0D2212220CC0E9FF0DC0F3FF09
:1002E000125005EC1CF00C6EF3CF0DF0F4CF12F0B1
:1002F000E9CF13F057D00E502EE00650020F0E6ECD
:10030000000E0720166E000E0820176E0EC006F0B5
:1003100016C007F017C008F0FE0E0E26FF0E1622BC
:1003200017220EC0E9FF16C0F3FF175068EC1DF04E
:100330000E6E0EC00CF00D6A126A136A0F5032E195
:100340000C500E6E0EC00CF0E86A0EBEFF0E0D6E65
:10035000126E136E27D00650020F0E6E000E07208D
:10036000166E000E0820176E0EC006F016C007F0BD
:1003700017C008F0FE0E0E26FF0E162217220EC022
:10038000E9FF16C0F3FF175068EC1DF00E6EF3CFB7
:1003900016F00EC00CF016C00DF0E86A16BEFF0E87
:1003A000126E136E1050D8B45FD00F5013E010507F
:1003B000E56E020EE56E7A0EE56E1350E56E125094
:1003C000E56E0D50E56E0C50E56E34EC09F0070E4D
:1003D000E12612D01050E56E020EE56E7A0EE56E43
:1003E0001350E56E1250E56E0D50E56E0C50E56E43
:1003F0005BEC15F0070EE12609C00EF00AC00FF005
:100400007A0E166E020E176E16C0E9FF17C0EAFFCD
:10041000EFCF18F01850D8B44CD018C010F01150CD
:1004200010E01050E56E51EC1DF0186EE12A1850E6
:1004300004E0DF0E1014186E02D010C018F018C0BF
:1004400010F01050E56E0250E56E0150E56E005060
:10045000E56E45EC11F0040EE1260E2AD8B00F2A05
:10046000162AD8B0172AD0D70C50E56E0250E56E88
:100470000150E56E0050E56E45EC11F0040EE126EA
:10048000092AD8B00A2A19D00B50E56E0250E56E41
:100490000150E56E0050E56E45EC11F0040EE126CA
:1004A000092AD8B00A2A09D014C009F015C00AF0E8
:1004B00004D00EC009F00FC00AF0032AD8B0042AF5
:1004C000D8B0052A05D60AC0F3FF0950E4CF18F0CA
:1004D000E4CF17F0E4CF16F0E4CF15F0E4CF14F03A
:1004E000E4CF13F0E4CF12F0E4CF11F0E4CF10F03A
:1004F000E4CF0FF0E4CF0EF0E4CF0DF0E4CF0CF03A
:10050000E4CF0BF0E4CF0AF0E4CF09F0E4CF08F039
:10051000E4CF07F0E4CF06F0E4CF05F0E4CF04F039
:10052000E4CF03F0E4CF02F0E4CF01F0E4CF00F039
:10053000E4CFD9FF1200D9CFE5FFE1CFD9FF00C04A
:10054000E5FF01C0E5FF02C0E5FF03C0E5FF04C011
:10055000E5FF05C0E5FF06C0E5FF07C0E5FF08C0F1
:10056000E5FF09C0E5FF0AC0E5FF0BC0E5FF0CC0D1
:10057000E5FF0DC0E5FF64C200F065C201F071C285
:1005800002F072C203F066C204F067C205F073C2E3
:1005900006F074C207F0D88005AED8901CE3051EA3
:1005A000046CD8B4052A000EE56E23EC1BF0086E2F
:1005B000E6520850010A2DE1BE6A0001D16B00012C
:1005C000D26B700E0201936F390E0201946F000E10
:1005D0000201956F65D10550800F800F02E1010E79
:1005E000045C17E3000EE56E23EC1BF0086EE65288
:1005F00008500FE1BE6A0001D16B0001D26BFC0E06
:100600000201936F380E0201946F000E0201956F84
:1006100047D1D88007AED8901CE3071E066CD8B42B
:10062000072A010EE56E23EC1BF0086EE652085017
:10063000010A2DE1BB6A0001D16B0001D26B360EBD
:100640000201936F390E0201946F000E0201956F43
:1006500027D10750800F800F02E1010E065C17E3DF
:10066000010EE56E23EC1BF0086EE65208500FE118
:10067000BB6A0001D16B0001D26BC20E0201936F05
:10068000380E0201946F000E0201956F09D10050DF
:10069000045C006E01500558016E0001D251E56EF8
:1006A0000001D151E56E000EE56E020EE56E1CEC08
:1006B00017F0086EF3CF09F0040EE126F50E0826B8
:1006C000000E092208C0E9FF09C0EAFF00C0EEFFE2
:1006D00001C0EFFF0250065C026E03500758036E24
:1006E0000001D251E56E0001D151E56E000EE56EBC
:1006F000020EE56E1CEC17F0086EF3CF09F0040E45
:10070000E1268A0E0826020E092208C0E9FF09C068
:10071000EAFF02C0EEFF03C0EFFF0001D13F02D0AD
:100720000001D22B0001D151030A03E10001D25193
:1007300001E0ADD00001D16B0001D26B086A096AFB
:100740000A6A0B6AF50E0A240C6E000E0B200D6E61
:100750000CC0E9FF0DC0EAFFEECF0CF0EFCF0DF0BB
:100760000C5000260D5001228A0E0A240C6E020E37
:100770000B200D6E0CC0E9FF0DC0EAFFEECF0CF0B0
:10078000EFCF0DF00C5002260D500322020E0A2668
:10079000D8B00B2A084A092A0950800F800F02E1BD
:1007A000030E085CCFE3000EE56E030EE56E01500C
:1007B000E56E0050E56EB7EC12F0006EF3CF01F07D
:1007C000040EE126000EE56E030EE56E0350E56EA5
:1007D0000250E56EB7EC12F0026EF3CF03F0040E98
:1007E000E126D88001AED8900BE30150800F810F35
:1007F00002E1F60E005C04E2F60E006EFF0E016EE2
:10080000D88003AED8900BE30350800F810F02E134
:10081000F60E025C04E2F60E026EFF0E036E01504D
:10082000800F800F02E10B0E005C03E30A0E006EE6
:10083000016A0350800F800F02E10B0E025C03E39C
:100840000A0E026E036A04500510D880E866D8903C
:10085000046A0436045002E0046A05D0BE50016EFA
:1008600000500124046E04C0BEFF06500710D8805B
:10087000E866D890066A0636065002E0006A05D09F
:10088000BB50016E02500124006E00C0BBFF480E39
:100890000201936F170E0201946F000E0201956F13
:1008A000E4CF0DF0E4CF0CF0E4CF0BF0E4CF0AF08E
:1008B000E4CF09F0E4CF08F0E4CF07F0E4CF06F08E
:1008C000E4CF05F0E4CF04F0E4CF03F0E4CF02F08E
:1008D000E4CF01F0E4CF00F0E4CFD9FF1200D9CF8C
:1008E000E5FFE1CFD9FF00C0E5FF01C0E5FF02C091
:1008F000E5FF03C0E5FF04C0E5FF05C0E5FF06C056
:10090000E5FFF2EC1EF0006E0050D8B49AD193ECE3
:100910001DF0006E0050C1EC1EF00050200A10E0E7
:100920000050580A01E1E2D00050610A33E0005063
:10093000650A01E16BD000507A0A01E149D081D10A
:100940000001B251D880E866D8900001B26B000176
:10095000B237B2C000F0016A0001B2BF0168000EF8
:10096000046E0F0E036ED80E026E0150E56E00503D
:10097000E56E0450E56E0350E56E0250E56E50ECF6
:1009800019F0050EE1260001B251E56E91EC1EF062
:10099000E65257D10001B03F02D00001B12B000E4A
:1009A000E56E0001B151E56E0001B051E56E03EC5A
:1009B00018F0030EE126010EE56E0001B151E56E5F
:1009C0000001B051E56E03EC18F0030EE12639D1B9
:1009D000FF0E0001B0270001B123000EE56E0001FB
:1009E000B151E56E0001B051E56E03EC18F0030E55
:1009F000E126010EE56E0001B151E56E0001B05136
:100A0000E56E03EC18F0030EE1261BD1B2C0A2F292
:100A1000000EE56E91EC1EF0E652000E026E0F0E17
:100A2000016EE40E006E0250E56E0150E56E00505E
:100A3000E56E50EC19F0030EE126000E016E600E1B
:100A4000006E800E026E0250E56E0150E56E0050A1
:100A5000E56E57EC07F0030EE126000E016E600E06
:100A6000006E800E026E0250E56E0150E56E005081
:100A7000E56EDBEC0AF00001B06FF3CFB1F0030ECE
:100A8000E126000E026E0F0E016EF80E006E0001E0
:100A9000B151E56E0001B051E56E0250E56E0150B6
:100AA000E56E0050E56E50EC19F0050EE126000EE3
:100AB000E56E0001B151E56E0001B051E56E03EC49
:100AC00018F0030EE126010EE56E0001B151E56E4E
:100AD0000001B051E56E03EC18F0030EE1260201AF
:100AE000A251E56E91EC1EF0E652ABD00201AB5183
:100AF00011E1000E026E100E016E0A0E006E025021
:100B0000E56E0150E56E0050E56E50EC19F0030EF5
:100B1000E12679D00201AB51010A11E1000E026E0B
:100B2000100E016E160E006E0250E56E0150E56E5D
:100B30000050E56E50EC19F0030EE12664D002017E
:100B4000AB51020A11E1000E026E100E016E220E70
:100B5000006E0250E56E0150E56E0050E56E50ECFF
:100B600019F0030EE1264FD00201AB51030A11E147
:100B7000000E026E100E016E2C0E006E0250E56E1D
:100B80000150E56E0050E56E50EC19F0030EE126C1
:100B90003AD00201AB51040A11E1000E026E100EB0
:100BA000016E360E006E0250E56E0150E56E00508B
:100BB000E56E50EC19F0030EE12625D00201AB5191
:100BC000050A11E1000E026E100E016E400E006E5D
:100BD0000250E56E0150E56E0050E56E50EC19F0E4
:100BE000030EE12610D0000E026E100E016E4E0EA6
:100BF000006E0250E56E0150E56E0050E56E50EC5F
:100C000019F0030EE1266FCF00F0016A6DCF02F0FC
:100C1000036A000E066E100E056E5E0E046E015025
:100C2000E56E0050E56E0350E56E0250E56E06502D
:100C3000E56E0550E56E0450E56E50EC19F0070EB8
:100C4000E126E4CF06F0E4CF05F0E4CF04F0E4CFF2
:100C500003F0E4CF02F0E4CF01F0E4CF00F0E4CF02
:100C6000D9FF1200D9CFE5FFE1CFD9FF00C0E5FFE2
:100C700001C0E5FF02C0E5FF03C0E5FF04C0E5FFDA
:100C800005C0E5FF06C0E5FF07C0E5FF1F0E050133
:100C90004015006E0050010A03E10501445101E0D6
:100CA000F3D041C500F00050060A01E063D043C50F
:100CB00001F00150210A26E1000E046E140E036EAD
:100CC000CE0E026E0450E56E0350E56E0250E56EE6
:100CD00050EC19F0030EE126010E0201A56F3B0E48
:100CE000026E140E036E03500001FC6F02500001EF
:100CF000FB6F800E0001FD6F090E0001FE6F000109
:100D0000FF6B38D00150220A22E1000E046E140E4F
:100D1000036EE40E026E0450E56E0350E56E025061
:100D2000E56E50EC19F0030EE126010E0201A56FED
:100D3000000E0001FD6F140E0001FC6F5C0E00013F
:100D4000FB6F2F0E0001FE6F0001FF6B13D00150EF
:100D5000230A10E1000E036E140E026EFE0E016EE9
:100D60000350E56E0250E56E0150E56E50EC19F04F
:100D7000030EE126600E05014015016E0150200AA8
:100D800021E041C501F0026A600E05014015036EC5
:100D9000046A000E076E150E066E1A0E056E0250DE
:100DA000E56E0150E56E0450E56E0350E56E0750A8
:100DB000E56E0650E56E0550E56E50EC19F0070E35
:100DC000E12662D00050010A03E137EC1AF05CD052
:100DD0000050090A06E1010E0201A66F04EC1AF0A8
:100DE00053D00050020A12E1010E0201A56F020E5B
:100DF0000001FC6FA70E0001FB6F800E0001FD6F6C
:100E0000010E0001FE6F0001FF6B3ED000500A0A88
:100E100006E1010E0201A56F43C5A7F235D00050CF
:100E2000030A12E1010E0201A56F020E0001FC6F20
:100E3000A80E0001FB6F800E0001FD6F010E000186
:100E4000FE6F0001FF6B20D000500B0A06E1010E7F
:100E50000201A56F42C5A8F217D041C500F0016A92
:100E6000000E046E150E036E3A0E026E0150E56E12
:100E70000050E56E0450E56E0350E56E0250E56EDD
:100E800050EC19F0050EE126E4CF07F0E4CF06F0B0
:100E9000E4CF05F0E4CF04F0E4CF03F0E4CF02F0B8
:100EA000E4CF01F0E4CF00F0E4CFD9FF1200D9CFB6
:100EB000E5FFE1CFD9FF00C0E5FF01C0E5FF02C0BB
:100EC000E5FF03C0E5FF04C0E5FF05C0E5FF06C080
:100ED000E5FF07C0E5FF08C0E5FF09C0E5FF020E1A
:100EE000DBCF00F0030EDBCF01F0040EDBCF02F00E
:100EF00000C003F001C004F002C005F00050FF0F75
:100F0000066EFF0E0120076EFF0E0220086E06C05F
:100F1000E9FF07C0F3FF0850DFEC1DF0096E095030
:100F20000D0A33E0F2EC1EF0096E0950E7E093EC95
:100F30001DF0096E09C0E5FF00C0E9FF01C0F3FF25
:100F400002507CEC1EF000C0E9FF01C0F3FF02502C
:100F5000DFEC1DF0096E0950C1EC1EF000C0E9FF86
:100F600001C0F3FF0250DFEC1DF0096E0950080AC2
:100F700007E106C000F007C001F008C002F0BED7CC
:100F8000002A02E3014A022AB9D7000EE56E00C02A
:100F9000E9FF01C0F3FF02507CEC1EF00350005E3D
:100FA0000450015A01C0F3FF0050E4CF09F0E4CF30
:100FB00008F0E4CF07F0E4CF06F0E4CF05F0E4CF8B
:100FC00004F0E4CF03F0E4CF02F0E4CF01F0E4CF8B
:100FD00000F0E4CFD9FF12000A0D44656275673D49
:100FE000256420000A0D456E7472652076656C6F6D
:100FF00063696461643A20000A0D56656C6F636929
:10100000646164203D202564000044657461636868
:1010100065640D0A000041747461636865640D0ABB
:101020000000506F77657265640D0A004465666163
:10103000756C740D0A00416464726573730D0A0067
:10104000436F6E666967757265640D0A0000556EC0
:101050006B6E6F776E2073746174650D0A00554373
:101060004F4E3A2025782C20554346473A20257884
:101070000D0A00005365747570466561747572657C
:101080005265706F72740A0D000050494320546518
:1010900073740D0A00006C6F6E67203D2025640A92
:1010A0000D00D9CFE5FFE1CFD9FF00C0E5FF01C0BA
:1010B000E5FF02C0E5FF03C0E5FF04C0E5FF05C092
:1010C000E5FF06C0E5FF05014051800A01E0BBD005
:1010D00043C500F042C501F00050010A22E1000EB4
:1010E000046E150E036E580E026E0450E56E03502A
:1010F000E56E0250E56E50EC19F0030EE126010E8C
:101100000201A56F000E0001FD6F140E0001FC6FBF
:10111000200E0001FB6F120E0001FE6F0001FF6B3D
:1011200092D00050020A01E03DD001C002F0036AF3
:10113000000E066E150E056E6C0E046E0350E56E05
:101140000250E56E0650E56E0550E56E0450E56E02
:1011500050EC19F0050EE126010E0201A56F000EFC
:101160000001FD6F140E0001FC6F320E0001FB6FD9
:10117000000E046E150E036E8C0E026E000EE56EF0
:10118000290EE56E0450E56E0350E56E0250E56EE3
:1011900050EC19F0050EE126290E0001FE6F00014A
:1011A000FF6B51D00050030A01E038D0010E02015C
:1011B000A56F01500AE1000E0001FD6F140E000141
:1011C000FC6F8C0E0001FB6F16D00150010A0AE182
:1011D000000E0001FD6F140E0001FC6F900E000167
:1011E000FB6F09D0000E0001FD6F140E0001FC6FB3
:1011F000A80E0001FB6FFBC001F0FCC002F0FDC0B7
:1012000003F001C0E9FF02C0F3FF0350DFEC1DF063
:10121000016E01C0FEF00001FF6B15D0016A000EE7
:10122000046E150E036E9A0E026E0150E56E0050AC
:10123000E56E0450E56E0350E56E0250E56E50EC2D
:1012400019F0050EE126E4CF06F0E4CF05F0E4CF77
:1012500004F0E4CF03F0E4CF02F0E4CF01F0E4CFF8
:1012600000F0E4CFD9FF1200D9CFE5FFE1CFD9FFDD
:1012700000C0E5FF01C0E5FF02C0E5FF03C0E5FFD8
:1012800004C0E5FF05C0E5FF06C0E5FF07C0E5FFB8
:1012900008C0E5FF09C0E5FF0AC0E5FF0BC0E5FF98
:1012A0000CC0E5FF0DC0E5FF0EC0E5FF0FC0E5FF78
:1012B000020EDBCF00F0030EDBCF01F0040EDBCF1C
:1012C00002F0050EDBCF03F0060EDBCF04F0070EB5
:1012D000DBCF05F0080EDBCF06F0200E076E086AA4
:1012E00006C009F00A6A0B6A0C6AE56AE56AE56AF3
:1012F0000950E56E0350E56E0250E56E0150E56E53
:101300000050E56E00EC0FF00D6E080EE126300E79
:101310000D263A0E0D5C02E3270E0D26FF0E072662
:10132000D8A00806400E07240E6E020E08200F6E8D
:101330000EC0E9FF0FC0EAFF0DC0EFFF0C50E56ED5
:101340000B50E56E0A50E56E0950E56E0350E56EF0
:101350000250E56E0150E56E0050E56E34EC10F081
:10136000006EF3CF01F0F4CF02F0E9CF03F0080EE6
:10137000E1260050011002100310D8A4B1D707C015
:1013800000F008C001F004C002F005C003F000C086
:1013900004F001C005F0002AD8B0012A400E04264E
:1013A000020E052204C0E9FF05C0EAFFEFCF04F0FA
:1013B00002C0E9FF03C0EAFF04C0EFFF022AD8B071
:1013C000032A000E015C02E1200E005CE0E302C093
:1013D000E9FF03C0EAFF000EEF6AE4CF0FF0E4CFAD
:1013E0000EF0E4CF0DF0E4CF0CF0E4CF0BF0E4CF3F
:1013F0000AF0E4CF09F0E4CF08F0E4CF07F0E4CF3F
:1014000006F0E4CF05F0E4CF04F0E4CF03F0E4CF3E
:1014100002F0E4CF01F0E4CF00F0E4CFD9FF1200F6
:101420001201000200000020D80441450100010221
:10143000000109022900010100A032090400000294
:1014400003000000092101010001222F000705818E
:1014500003200001070501032000010006A0FF0989
:1014600001A101090215002600FF750895208102DF
:10147000090215002600FF75089520910209011543
:10148000002600FF75089520B102C000040309047E
:1014900018034C0069006E007500780020005200AF
:1014A0006F0062006F007400260355005300420075
:1014B000200052006F0062006F0074002000700076
:1014C00072006F0074006F0063006F006C00484989
:1014D000443A204849445F44455343524950544F8D
:1014E000520D0A004849443A205245504F52545F29
:1014F00044455343524950544F520D0A0000484945
:10150000443A20504859534943414C5F4445534362
:10151000524950544F520D0A00004E6F7420434CF4
:1015200041535320726571756573743A2030782584
:10153000782C20307825780D0A004849443A205507
:101540006E6B6E6F776E20726571756573743A207D
:10155000307825780D0A00004445564943455F44DC
:10156000455343524950544F520D0A00434F4E4683
:10157000494755524154494F4E5F444553435249A0
:1015800050544F523A2025640D0A000077436F757E
:101590006E74203D2025640A0000556E6B6E6F77D7
:1015A0006E2044657363726970746F723A2030788C
:1015B0002575780D0A00D9CFE5FFE1CFD9FF00C02E
:1015C000E5FF01C0E5FF02C0E5FF03C0E5FF04C081
:1015D000E5FF05C0E5FF06C0E5FF07C0E5FF08C061
:1015E000E5FF09C0E5FF020EDBCF00F0030EDBCF05
:1015F00001F0040EDBCF02F0036A046A056A00C042
:1016000006F001C007F002C008F006C0E9FF07C0FD
:10161000F3FF0850DFEC1DF0096E09501BE0095084
:10162000800F460F04E20950800F500F13E206C0EE
:10163000E9FF07C0F3FF0850DFEC1DF0096E095009
:101640002D0A08E009502B0A05E0062A02E3074AA2
:10165000082ADBD706C000F007C001F008C002F07E
:1016600006C0E9FF07C0F3FF0850DFEC1DF0066E6F
:10167000076A06502D0A01E1072A075002E0010E11
:10168000056E075003E106502B0A04E1002A02E32D
:10169000014A022A00C0E9FF01C0F3FF0250DFEC5B
:1016A0001DF0066E065029E00650800F500F25E30E
:1016B0000650800F460F21E20450E56E0350E56EA0
:1016C000000EE56E0A0EE56E1CEC17F0076EF3CF08
:1016D00008F0040EE126096A06BE0968D00E062647
:1016E000D8A0090606500724036E09500820046E8E
:1016F000002A02E3014A022ACDD7055007E0041C64
:10170000016E031C006E004A012A04D003C000F0E1
:1017100004C001F001C0F3FF0050E4CF09F0E4CFB2
:1017200008F0E4CF07F0E4CF06F0E4CF05F0E4CF13
:1017300004F0E4CF03F0E4CF02F0E4CF01F0E4CF13
:1017400000F0E4CFD9FF1200D9CFE5FFE1CFD9FFF8
:1017500000C0E5FF01C0E5FF0001CB510001CB2730
:101760000001CC37D8900001CB370001CC370C0EEC
:101770008314006E0040E8403F0B006E016A005089
:101780000001CB1301500001CC130F0E0001CB154B
:10179000006E016AB70E0026000E012200C0E9FFAC
:1017A00001C0EAFFEFCF00F0016A00BE01680050FF
:1017B0000001C72701500001C8230001CD510001DD
:1017C000CD270001CE37D8900001CD370001CE37AC
:1017D000030E8314006E016A00500001CD13015006
:1017E0000001CE130F0E0001CD15006E016AB70E79
:1017F0000026000E012200C0E9FF01C0EAFFEFCF82
:1018000000F0016A00BE016800500001C9270150C4
:101810000001CA230001CF3F02D00001D02B0001FC
:10182000D051800F800F03E1780E0001CF5DD8A06A
:101830003CD00001C851E56E0001C751E56E1DECBA
:1018400016F0006EF3CF01F0E652E65200500201AE
:10185000646F01500201656F0001CA51E56E00011D
:10186000C951E56E1DEC16F0006EF3CF01F0E652A3
:10187000E65200500201716F01500201726F0001C7
:10188000CF6B0001D06B0001C76B0001C86B00017A
:10189000C96B0001CA6B360E0201936F050E02017F
:1018A000946F000E0201956F09D0480E0201936FEC
:1018B000170E0201946F000E0201956FE4CF01F044
:1018C000E4CF00F0E4CFD9FF1200D9CFE5FFE1CF9C
:1018D000D9FF00C0E5FF01C0E5FF02C0E5FF03C07E
:1018E000E5FF04C0E5FF05C0E5FF06C0E5FF07C052
:1018F000E5FF08C0E5FF000E0001FF5D03E1200EDB
:101900000001FE5D05E2FEC000F0FFC001F003D063
:10191000200E006E016A04010451026EFC0E0216D4
:1019200002500401046F026A030E0114036E035097
:10193000026E036A04010451021202500401046F92
:101940000050026E036A02500401056F800E026EA1
:10195000050E036E046A056A046A056A02500401F2
:10196000066F03500401076F00500001FE5F015035
:101970000001FF5B050E0201916F800E0201906F66
:10198000800E0201926F026A02C003F0046A0150E5
:10199000045C02E10050035C2FE290C203F091C2AC
:1019A00004F092C205F0FBC006F0FCC007F0FDC0D9
:1019B00008F006C0E9FF07C0F3FF0850DFEC1DF098
:1019C000066E0001FB2B05E30001FC3F02D0000185
:1019D000FD2B06C0E5FF03C0E9FF04C0F3FF05507F
:1019E0007CEC1EF00201902B05E30201913F02D036
:1019F0000201922B022AC8D7E4CF08F0E4CF07F007
:101A0000E4CF06F0E4CF05F0E4CF04F0E4CF03F038
:101A1000E4CF02F0E4CF01F0E4CF00F0E4CFD9FF4F
:101A20001200D9CFE5FFE1CFD9FF00C0E5FF01C02B
:101A3000E5FF02C0E5FF03C0E5FF04C0E5FF05C008
:101A4000E5FF1F0E05014015006E42C501F0005074
:101A500012E10150010A01E07DD0010E0201A56FE3
:101A600005014151030A04E1010E0201AA6F72D07F
:101A70000201AA6B6FD00050020A01E06BD00F0E7A
:101A800005014415006E800E05014415026E0150DB
:101A9000D8A460D00050D8B45DD0010E0201A56F6B
:101AA000040E036E000E016E800E046E0050080DD1
:101AB000F450056EF3CF00F0005001240201906F46
:101AC000055003200201916FE86A05BEE868042012
:101AD0000201926F025008E0040E02019027000EEE
:101AE000020191230201922305014151030A10E1F1
:101AF00090C200F091C201F092C203F0840EE56E34
:101B000000C0E9FF01C0F3FF03507CEC1EF022D0BF
:101B10000250010A10E190C200F091C201F092C29D
:101B200002F0000EE56E00C0E9FF01C0F3FF0250B5
:101B30007CEC1EF00FD090C200F091C201F092C276
:101B400002F0880EE56E00C0E9FF01C0F3FF02500D
:101B50007CEC1EF0E4CF05F0E4CF04F0E4CF03F01A
:101B6000E4CF02F0E4CF01F0E4CF00F0E4CFD9FFFE
:101B70001200D9CFE5FFE1CFD9FF00C0E5FF01C0DA
:101B8000E5FF02C0E5FF03C0E5FF04010451006E5C
:101B9000009E00500401046F04010051006E009E7D
:101BA00000500401006F0201AD6B0201A56B020140
:101BB000A66B0001FE6B0001FF6B3EEC12F032ECF5
:101BC00006F00201A55118E1200E0401016F400E3C
:101BD000006E050E016E026A036A026A036A005013
:101BE0000401026F01500401036F840E0401006FB1
:101BF000840E0401046F58D0050140AF39D00001B4
:101C0000FF510501475D04E10001FE510501465DFC
:101C100004E246C5FEF047C5FFF065EC0CF0020E8D
:101C20000201AD6F200E0401016F400E006E050E23
:101C3000016E026A036A026A036A00500401026FBD
:101C400001500401036F800E0401006F800E006ECE
:101C5000050E016E026A036A026A036A00500401FB
:101C6000066F01500401076FC80E0401046F1CD0F9
:101C7000010E0201AD6F0401056BC80E0401046F73
:101C8000200E0401016F800E006E050E016E026AC7
:101C9000036A026A036A00500401026F01500401E2
:101CA000036FC80E0401006F6D98E4CF03F0E4CF1A
:101CB00002F0E4CF01F0E4CF00F0E4CFD9FF12004E
:101CC000D9CFE5FFE1CFD9FF00C0E5FF01C0E5FFB7
:101CD00002C0E5FF03C0E5FF04C0E5FF05C0E5FF66
:101CE0001F0E05014015006E0501806B0501816B1B
:101CF000005019E1010E0201A56F0201A95107E090
:101D0000010E05018011016E01500501806F020175
:101D1000AA51D8B455D0020E05018011016E0150B0
:101D20000501806F4DD00050010A04E1010E02014F
:101D3000A56F46D00050020A01E042D00F0E050107
:101D40004415006E800E05014415016E010E02015E
:101D5000A56F040E036E000E026E800E046E00501E
:101D6000080DF450056EF3CF00F00050022402017C
:101D7000906F055003200201916FE86A05BEE86884
:101D800004200201926F015008E0040E0201902726
:101D9000000E020191230201922390C200F091C231
:101DA00001F092C202F000C0E9FF01C0F3FF02504F
:101DB000DFEC1DF0006E00A403D0010E0501806F62
:101DC0000201A5510EE0050E0001FC6F800E00011E
:101DD000FB6F800E0001FD6F020E0001FE6F00011F
:101DE000FF6BE4CF05F0E4CF04F0E4CF03F0E4CFE1
:101DF00002F0E4CF01F0E4CF00F0E4CFD9FF12000D
:101E0000D9CFE5FFE1CFD9FF00C0E5FF01C0E5FF75
:101E100002C0E5FF03C0E5FF04C0E5FF05C0E5FF24
:101E200006C0E5FF07C0E5FF08C0E5FF09C0E5FF04
:101E30000AC0E5FF020EDBCF00F0030EDBCF01F09E
:101E4000040EDBCF02F0050EDBCF03F0060EDBCF76
:101E500004F0070EDBCF05F0080EDBCF06F0090E0D
:101E6000DBCF07F0086A045005100610071005E1E3
:101E7000E968F468F368E86847D0096A0750800B9E
:101E8000E8440A6E0A501BE1045004260536063663
:101E900007360750035C08E10650025C05E1055077
:101EA000015C02E10450005C06E2D8900732063281
:101EB0000532043204D0092A09C008F0DFD70750E0
:101EC000035C08E10650025C05E10550015C02E19B
:101ED0000450005C08E30450005E0550015A0650AF
:101EE000025A0750035AD89007320632053204329C
:101EF00008C009F008060950E2E103C0E9FF02C08A
:101F0000F4FF01C0F3FF0050E4CF0AF0E4CF09F082
:101F1000E4CF08F0E4CF07F0E4CF06F0E4CF05F01B
:101F2000E4CF04F0E4CF03F0E4CF02F0E4CF01F01B
:101F3000E4CF00F0E4CFD9FF1200D9CFE5FFE1CF25
:101F4000D9FF00C0E5FF01C0E5FF02C0E5FF03C007
:101F5000E5FF04C0E5FF05C0E5FF0F0EC112140E3A
:101F60006F6E848E929094929586958492929494BA
:101F7000958095827C0ECB6E050ECA6EBE6ABB6ADA
:101F80003C0EBD6E3C0EBA6E600E006E020E016E0F
:101F9000000EE56E340EE56E000EE56E0150E56E46
:101FA0000050E56EF6EC14F0050EE126010E02017C
:101FB000AE6F006A83B6002A016A00500201626FA8
:101FC00001500201636F006A83B0002A016A005069
:101FD00002016F6F01500201706F000EE56E010E7D
:101FE000E56EBFEC15F0E652E652010EE56E010E0D
:101FF000E56EBFEC15F0E652E652480E0201936F13
:10200000170E0201946F000E0201956F02019551A7
:10201000026E02019451016E02019351006E000E96
:10202000056E2C0E046EAA0E036E0250E56E015072
:10203000E56E0050E56E0550E56E0450E56E035008
:10204000E56E50EC19F0060EE126E4CF05F0E4CF82
:1020500004F0E4CF03F0E4CF02F0E4CF01F0E4CFEA
:1020600000F0E4CFD9FF1200D9CFE5FFE1CFD9FFCF
:1020700000C0E5FF01C0E5FF02C0E5FF03C0E5FFCA
:1020800004C0E5FF05C0E5FF06C0E5FF07C0E5FFAA
:1020900008C0E5FF09C0E5FF0AC0E5FF0BC0E5FF8A
:1020A0000CC0E5FF0DC0E5FF020EDBCF00F0030E14
:1020B000DBCF01F0040EDBCF02F0050EDBCF03F027
:1020C000060EDBCF04F0070EDBCF05F0080EDBCFEA
:1020D00006F0090EDBCF07F0086A096A0A6A0B6A84
:1020E000200E0C6E0350800BE8440D6E005000264D
:1020F0000136023603360850082609360A360B36F2
:102100000D50D8A4088007500B5C08E106500A5C0B
:1021100005E10550095C02E10450085C09E3045044
:10212000085E0550095A06500A5A07500B5A00809B
:102130000C2ED8D703C0E9FF02C0F4FF01C0F3FFA3
:102140000050E4CF0DF0E4CF0CF0E4CF0BF0E4CF7F
:102150000AF0E4CF09F0E4CF08F0E4CF07F0E4CFD1
:1021600006F0E4CF05F0E4CF04F0E4CF03F0E4CFD1
:1021700002F0E4CF01F0E4CF00F0E4CFD9FF120089
:10218000D9CFE5FFE1CFD9FF00C0E5FF01C0E5FFF2
:1021900002C0E5FF03C0E5FF04C0E5FF05C0E5FFA1
:1021A00006C0E5FF07C0E5FF08C0E5FF09C0E5FF81
:1021B000030E04010015006E016A0050036E026AEE
:1021C00001C400F0016A02500012035001120050D5
:1021D0000001FE2701500001FF23050E0001FC6FE6
:1021E000800E0001FB6F800E0001FD6F026A036A22
:1021F0000150035C02E10050025C30E290C204F046
:1022000091C205F092C206F0FBC007F0FCC008F0D6
:10221000FDC009F007C0E9FF08C0F3FF0950DFEC7B
:102220001DF0076E0001FB2B05E30001FC3F02D00F
:102230000001FD2B07C0E5FF04C0E9FF05C0F3FF67
:1022400006507CEC1EF00201902B05E30201913F49
:1022500002D00201922B024A032ACAD7E4CF09F026
:10226000E4CF08F0E4CF07F0E4CF06F0E4CF05F0C8
:10227000E4CF04F0E4CF03F0E4CF02F0E4CF01F0C8
:10228000E4CF00F0E4CFD9FF1200D9CFE5FFE1CFD2
:10229000D9FF00C0E5FF01C0E5FF02C0E5FF03C0B4
:1022A000E5FF04C0E5FF05C0E5FF06C0E5FF07C088
:1022B000E5FF020EDBCF00F0030EDBCF01F0040ED2
:1022C000DBCF02F0050EDBCF03F002C006F00650B4
:1022D000046E800A28E100C0E9FF01C0F3FF02504C
:1022E000D5EC1CF0056EF3CF06F0F4CF07F003C079
:1022F000E5FF05C0E9FF06C0F3FF07507CEC1EF0C8
:10230000052AD8B0062AD8B0072A05C0E5FF06C0BE
:10231000F4FF07C0F6FF00C0E9FF01C0F3FF025061
:1023200010EC1EF01ED004AA1CD0200E041A04507B
:1023300004E10350F6EC1EF014D00450010A04E14D
:102340000350FDEC1EF00DD004500F0A04E10350C1
:10235000C9EC1EF006D004500E0A03E10350FAEC5B
:102360001EF0E4CF07F0E4CF06F0E4CF05F0E4CFB1
:1023700004F0E4CF03F0E4CF02F0E4CF01F0E4CFC7
:1023800000F0E4CFD9FF1200D9CFE5FFE1CFD9FFAC
:1023900000C0E5FF01C0E5FF02C0E5FF03C0E5FFA7
:1023A00004C0E5FF05C0E5FF06C0E5FF07C0E5FF87
:1023B00008C0E5FF020EDBCF00F0030EDBCF01F01B
:1023C000040EDBCF02F0050EDBCF03F00201A46B9D
:1023D000040108BF3CD003500401095D02E209C4B6
:1023E00003F00201A46B03500201A45D23E2020189
:1023F000A4510024046EE86A0120056EE86A0220F8
:10240000066E200E0201A425076E086A050E08223A
:1024100007C0E9FF08C0EAFFEFCF07F007C0E5FFFC
:1024200004C0E9FF05C0F3FF06507CEC1EF002017A
:10243000A42BD9D7200E0401096F040108AD04D0E4
:10244000880E0401086F03D0C80E0401086F020152
:10245000A451E4CF08F0E4CF07F0E4CF06F0E4CFD6
:1024600005F0E4CF04F0E4CF03F0E4CF02F0E4CFD2
:1024700001F0E4CF00F0E4CFD9FF1200D9CFE5FF9F
:10248000E1CFD9FF00C0E5FF41C500F00501405193
:10249000600B01E067D00050050A09E1010E02015E
:1024A000A56F040E0201AB6F42C5A3F25BD00050D2
:1024B000060A03E151EC08F055D00050090A12E178
:1024C000010E0201A56F42C5ACF20201AC5104E15C
:1024D000040E0201AB6F46D0050E0201AB6F10EC8B
:1024E00019F040D00050080A12E1010E0201A56F58
:1024F000020E0001FC6FAC0E0001FB6F800E0001AC
:10250000FD6F010E0001FE6F0001FF6B2BD000502C
:1025100003E160EC0EF026D00050010A03E0005009
:10252000030A03E111EC0DF01DD000500A0A14E17A
:10253000010E0201A56F0501806B050E0001FC6F05
:10254000800E0001FB6F800E0001FD6F010E000187
:10255000FE6F0001FF6B06D000500B0A03E1010E75
:102560000201A56FE4CF00F0E4CFD9FF1200D9CF6C
:10257000E5FFE1CFD9FF00C0E5FF01C0E5FF02C0E4
:10258000E5FF03C0E5FF04C0E5FF05C0E5FF06C0A9
:10259000E5FF07C0E5FF020EDBCF00F0030EDBCF47
:1025A00001F0040EDBCF02F0050EDBCF03F0D88084
:1025B00001AED890046A0436045007E0011C066E90
:1025C000001C056E054A062A04D000C005F001C0B3
:1025D00006F0D88003AED890006A0036005007E0BD
:1025E000031C076E021C016E014A072A04D002C0B8
:1025F00001F003C007F00750E56E0150E56E06508C
:10260000E56E0550E56EC8EC16F0016EF3CF02F0F2
:10261000040EE1260050041A04500AE0021C036E66
:10262000011C006E004A032A03C0F3FF005003D0D0
:1026300002C0F3FF0150E4CF07F0E4CF06F0E4CF8F
:1026400005F0E4CF04F0E4CF03F0E4CF02F0E4CFF0
:1026500001F0E4CF00F0E4CFD9FF1200D9CFE5FFBD
:10266000E1CFD9FF00C0E5FF01C0E5FF02C0E5FFF3
:1026700003C0E5FF04C0E5FF05C0E5FF020EDBCFA8
:1026800000F0005001E051D020C500F0016A005078
:102690000001B16F0001B06B21C500F0016A00506C
:1026A0000001B01301500001B11322C500F0016A0E
:1026B0000050036E026A23C500F0016A0050021246
:1026C0000150031224C500F0016A0050056E046A2F
:1026D00025C500F0016A0050041201500512000ED9
:1026E000E56E0350E56E0250E56E03EC18F0030E44
:1026F000E126010EE56E0550E56E0450E56E03EC33
:1027000018F0030EE12626C500F0016A0050036EA2
:10271000026A27C500F0016A00500212015003123C
:102720000250E56E9BEC1EF0E652E4CF05F0E4CFDC
:1027300004F0E4CF03F0E4CF02F0E4CF01F0E4CF03
:1027400000F0E4CFD9FF1200D9CFE5FFE1CFD9FFE8
:1027500000C0E5FF01C0E5FF02C0E5FF03C0E5FFE3
:1027600004C0E5FF05C0E5FF06C0E5FF07C0E5FFC3
:1027700008C0E5FF09C0E5FF020EDBCF00F0030E45
:10278000DBCF01F0040EDBCF02F0050EDBCF03F050
:1027900004010CAF02D0E86A36D0210E035C02E3DC
:1027A000200E036E046A0350045C1FE2000E042432
:1027B000056E066A050E062204500024076EE86ABC
:1027C0000120086EE86A0220096E07C0E9FF08C010
:1027D000F3FF0950DFEC1DF0076E05C0E9FF06C0EE
:1027E000EAFF07C0EFFF042ADED7035004010D6F94
:1027F00004010CAD04D0880E04010C6F03D0C80E88
:1028000004010C6F0350E4CF09F0E4CF08F0E4CFEB
:1028100007F0E4CF06F0E4CF05F0E4CF04F0E4CF16
:1028200003F0E4CF02F0E4CF01F0E4CF00F0E4CF16
:10283000D9FF1200D9CFE5FFE1CFD9FF00C0E5FFF6
:1028400001C0E5FF020EDBCF00F00050D8A45CD041
:102850000001B051006E0001B151016E006A0150DB
:10286000006E016A00500501006F0001B051006E5A
:10287000016A00500501016F000EE56EF8EC1AF0D8
:10288000006EF3CF01F0E652006A0150006E016A5B
:1028900000500501026F000EE56EF8EC1AF0006EB4
:1028A000F3CF01F0E652016A00500501036F010EFB
:1028B000E56EF8EC1AF0006EF3CF01F0E652006A14
:1028C0000150006E016A00500501046F010EE56EB3
:1028D000F8EC1AF0006EF3CF01F0E652016A0050F6
:1028E0000501056F0501066B0501076B050E00016B
:1028F000FC6F000E0001FB6F800E0001FD6F200ECB
:102900000001FE6F0001FF6BE4CF01F0E4CF00F0A7
:10291000E4CFD9FF1200D9CFE5FFE1CFD9FF00C046
:10292000E5FF6C50D8A43AD03C0E04010015006EAF
:102930000040E8403F0B006E00500D0A03E1B9EC87
:102940000DF04FD00201AD51010A25E1C0EC10F0AD
:102950000201A65115E042C500F005014351020AEB
:1029600006E10050E56E2EEC13F0E65209D00501A9
:102970004351030A05E10050E56ED9EC1EF0E65222
:10298000040100AD04D0880E0401006F2AD0C80EE7
:102990000401006F26D0C9EC1AF023D06C50040A51
:1029A00020E16E500BE10201AB51040A07E142C580
:1029B0006EFF6E5003E1030E0201AB6F0201AD51D9
:1029C000020A0DE165EC0CF0040104AD04D0880EA0
:1029D0000401046F06D0C80E0401046F02D0C9ECD4
:1029E0001AF0E4CF00F0E4CFD9FF1200D9CFE5FF11
:1029F000E1CFD9FF00C0E5FF01C0E5FF02C0E5FF60
:102A000003C0E5FF04C0E5FF05C0E5FF06C0E5FF24
:102A100007C0E5FF08C0E5FF09C0E5FF020EDBCFF8
:102A200000F0030EDBCF01F0040EDBCF02F0050E49
:102A3000DBCF03F0060EDBCF04F00150066E005032
:102A4000056E800E076E03C008F004C009F0FF0E8B
:102A50000326D8A00406085009100FE002C0E5FFC5
:102A600005C0E9FF06C0F3FF07507CEC1EF0052A05
:102A7000D8B0062AD8B0072AE6D7800E026E02C068
:102A8000F4FF01C0F3FF0050E4CF09F0E4CF08F0F9
:102A9000E4CF07F0E4CF06F0E4CF05F0E4CF04F094
:102AA000E4CF03F0E4CF02F0E4CF01F0E4CF00F094
:102AB000E4CFD9FF1200D9CFE5FFE1CFD9FF00C0A5
:102AC000E5FF01C0E5FF02C0E5FF03C0E5FF04C06C
:102AD000E5FF05C0E5FF06C0E5FF020EDBCF00F015
:102AE000030EDBCF01F0040EDBCF02F0050EDBCFCF
:102AF00003F0060EDBCF04F0070EDBCF05F0080E67
:102B0000DBCF06F0D88003AED89016E306500A0A51
:102B100013E104C0E9FF05C0EAFF2D0EEF6E042AA1
:102B2000D8B0052A031E021E011E006C05E1012A11
:102B300003E1022AD8B4032A0650E56E0550E56E7B
:102B40000450E56E0350E56E0250E56E0150E56EEF
:102B50000050E56E34EC09F0070EE126E4CF06F0F4
:102B6000E4CF05F0E4CF04F0E4CF03F0E4CF02F0CB
:102B7000E4CF01F0E4CF00F0E4CFD9FF1200D9CFC9
:102B8000E5FFE1CFD9FF00C0E5FF01C0E5FF02C0CE
:102B9000E5FF03C0E5FF04C0E5FF05C0E5FF06C093
:102BA000E5FF020EDBCF00F0030EDBCF01F0026A7F
:102BB000036A000E066E2C0E056ED40E046E0650CF
:102BC000E56E0550E56E0450E56E50EC19F0030E0D
:102BD000E126015004E00150010A10E017D0005036
:102BE000D880E866D890016A01360150010BE844AC
:102BF000F46E8050FD0BF410806E0BD00050010B72
:102C0000F46E8050FE0BF410806E03D0010E026E45
:102C1000036A03C0F3FF0250E4CF06F0E4CF05F0EF
:102C2000E4CF04F0E4CF03F0E4CF02F0E4CF01F00E
:102C3000E4CF00F0E4CFD9FF1200D9CFE5FFE1CF18
:102C4000D9FF00C0E5FF01C0E5FF02C0E5FF03C0FA
:102C5000E5FF020EDBCF00F0030EDBCF01F0D880E2
:102C600001AED890026A02360250D880E866D89049
:102C7000026A0236025005E000C002F001C003F013
:102C800006D0011C036E001C026E024A032A03C018
:102C9000F3FF0250E4CF03F0E4CF02F0E4CF01F001
:102CA000E4CF00F0E4CFD9FF1200496E6974696186
:102CB0006C697A65204D6F746F72732025780A0DE8
:102CC00000006D6F746F72496E766572744469723C
:102CD0000A0D00006D6F746F724368616E67654422
:102CE00069720A0D0000D9CFE5FFE1CFD9FF00C01E
:102CF000E5FF01C0E5FF02C0E5FF03C0E5FF04C03A
:102D0000E5FF05C0E5FF06C0E5FF07C0E5FF020ED1
:102D1000DBCF00F0030EDBCF01F0040EDBCF02F0BF
:102D2000050EDBCF03F0D88003AED8900FE3031C71
:102D3000076E021C066E011C056E001C046E042A40
:102D40000DE1052A0BE1064A072A08D000C004F06D
:102D500001C005F002C006F003C007F007C0E9FF9C
:102D600006C0F4FF05C0F3FF0450E4CF07F0E4CF42
:102D700006F0E4CF05F0E4CF04F0E4CF03F0E4CFB5
:102D800002F0E4CF01F0E4CF00F0E4CFD9FF12006D
:102D9000D9CFE5FFE1CFD9FF00C0E5FF01C0E5FFD6
:102DA00002C0E5FF03C0E5FF04C0E5FF05C0E5FF85
:102DB00006C0E5FF07C0E5FF020EDBCF00F0030E03
:102DC000DBCF01F0040EDBCF02F0050EDBCF03F00A
:102DD000046A056A100E066E0150800BE844076E07
:102DE0000050002601360450042605360750D8A4AA
:102DF00004800350055C02E10250045C05E30250CC
:102E0000045E0350055A0080062EE6D701C0F3FF8A
:102E10000050E4CF07F0E4CF06F0E4CF05F0E4CFB4
:102E200004F0E4CF03F0E4CF02F0E4CF01F0E4CF0C
:102E300000F0E4CFD9FF1200D9CFE5FFE1CFD9FFF1
:102E400000C0E5FF01C0E5FF02C0E5FF03C0E5FFEC
:102E5000020EDBCF00F0030EDBCF01F0040EDBCF60
:102E600002F0050EDBCF03F0005002019C6F015011
:102E70009D6F025002019E6F03509F6F02019C5193
:102E800002019E03F4CF01F0F3CF00F000500201E5
:102E9000A06F0150A16F02019C5102019F03F3CF6B
:102EA00000F002019D5102019E03F3CF01F0015099
:102EB00000260201A15100260050A16FA1C2F3FF1C
:102EC000A051E4CF03F0E4CF02F0E4CF01F0E4CF6F
:102ED00000F0E4CFD9FF120011EEFFF021EEFFF079
:102EE000F86AA68EA69CCE0EF66E3D0EF76E000E0C
:102EF000F86E0900F5CF05F00900F5CF06F034D0E3
:102F00000900F5CF00F00900F5CF01F00900F5CF79
:102F100002F009000900F5CFE9FF0900F5CFEAFF4B
:102F2000090009000900F5CF03F00900F5CF04F00E
:102F300009000900F6CF07F0F7CF08F0F8CF09F045
:102F400000C0F6FF01C0F7FF02C0F8FF03D0090080
:102F5000F5CFEEFF0306FBE20406F9E207C0F6FF39
:102F600008C0F7FF09C0F8FF0506CAE20606C8E276
:102F70008CEC18F0FFD7D9CFE5FFE1CFD9FF00C027
:102F8000E5FF01C0E5FF02C0E5FF03C0E5FF04C0A7
:102F9000E5FF05C0E5FF020EDBCF00F0030EDBCF3F
:102FA00001F0040EDBCF02F0050EDBCF03F0046A64
:102FB00003C005F00306055016E045EC1EF0056E53
:102FC00005C0E5FF00C0E9FF01C0F3FF02507CEC43
:102FD0001EF0035002E05BEC1EF0002A02E3014AFF
:102FE000022A042AE5D70450E4CF05F0E4CF04F028
:102FF000E4CF03F0E4CF02F0E4CF01F0E4CF00F03F
:10300000E4CFD9FF1200D9CFE5FFE1CFD9FF00C04F
:10301000E5FF01C0E5FF02C0E5FF03C0E5FF020ECA
:10302000DBCF00F0030EDBCF01F0040EDBCF02F0AC
:1030300002500D0DF450036EF3CF02F0600E022625
:10304000020E0322060E0226D8B0032A0150E56EB6
:103050000050E56E000EE56E020EE56E1CEC17F0FA
:10306000006EF3CF01F0040EE12602C0E9FF03C0B9
:10307000EAFF00C0EEFF01C0EFFFE4CF03F0E4CFB2
:1030800002F0E4CF01F0E4CF00F0E4CFD9FF12006A
:10309000D9CFE5FFE1CFD9FF00C0E5FF01C0E5FFD3
:1030A00002C0E5FF03C0E5FF04C0E5FF05C0E5FF82
:1030B000020EDBCF00F0016A026A000E056E2C0ED4
:1030C000046EC20E036E0550E56E0450E56E0350AB
:1030D000E56E50EC19F0030EE126005004E00050BC
:1030E000010A03E004D0808205D0808003D0010E65
:1030F000016E026A02C0F3FF0150E4CF05F0E4CF95
:1031000004F0E4CF03F0E4CF02F0E4CF01F0E4CF29
:1031100000F0E4CFD9FF12000201AB6B0201AA6BF1
:103120000201A96B0201AC6BE5EC1BF09DEC0FF00A
:103130001FEC1EF0000E026E100E016E8A0E006E65
:103140000250E56E0150E56E0050E56E50EC19F04E
:10315000030EE126000E026E100E016E960E006E3A
:10316000000EE56E040EE56E0250E56E0150E56E50
:103170000050E56E50EC19F0050EE1260501406B9C
:1031800043EC1CF0006A6FBE002A0050010A02E006
:10319000CEEC18F009EC1DF0F3D71200D9CFE5FF03
:1031A000E1CFD9FF00C0E5FF0201AB5134E068A4D4
:1031B00004D069A402D087EC1EF0006A6DB2002A28
:1031C0000050010A28E068A004D069A002D075EC84
:1031D0001BF068A804D069A802D0E0EC1EF068AC2F
:1031E00004D069AC02D0B9EC1EF068AA04D069AA78
:1031F00002D07EEC1DF068A203D069A201D06892D3
:10320000030E0201AB5D07E368A605D069A603D0F3
:103210008BEC14F06896E4CF00F0E4CFD9FF1200F5
:10322000D9CFE5FFE1CFD9FF00C0E5FF01C0E5FF41
:1032300002C0E5FF03C0E5FF0201A46B1E0E716E24
:10324000200E0401096F200E006E050E016E026A49
:10325000036A026A036A005004010A6F0150040104
:103260000B6F880E0401086F000E006E050E016ED4
:10327000026A036A026A036A005004010E6F015079
:1032800004010F6F400E04010C6FE4CF03F0E4CF94
:1032900002F0E4CF01F0E4CF00F0E4CFD9FF120058
:1032A000D9CFE5FFE1CFD9FF00C0E5FF01C0E5FFC1
:1032B00002C0E5FF020ED924006E000EDA20016E76
:1032C000800E026E030E0026000E01220222025022
:1032D000E56E0150E56E0050E56E040EDBCFE5FFB4
:1032E000030EDBCFE5FF020EDBCFE5FF02019851B5
:1032F000E56E9751E56E9651E56E15EC00F0006EA7
:10330000F3CF01F0090EE12601C0F3FF0050E4CF36
:1033100002F0E4CF01F0E4CF00F0E4CFD9FF1200D7
:10332000D9CFE5FFE1CFD9FF00C0E5FF01C0E5FF40
:1033300002C0E5FF03C0E5FF04C0E5FF020EDBCFDE
:1033400000F0030EDBCF01F0040EDBCF02F0050E20
:10335000DBCF03F003C004F00306045012E000C00A
:10336000E9FF01C0F3FF0250DFEC1DF0046E0450D2
:10337000E56E2CEC1EF0E652002AECE3014A022A2C
:10338000E9D7E86AE4CF04F0E4CF03F0E4CF02F039
:10339000E4CF01F0E4CF00F0E4CFD9FF1200D9CFA1
:1033A000E5FFE1CFD9FF00C0E5FF01C0E5FF02C0A6
:1033B000E5FF03C0E5FF020EDBCF00F0000E036E59
:1033C000100E026E740E016E0350E56E0250E56E33
:1033D0000150E56E50EC19F0030EE126005009E1B2
:1033E000020E0201916F200E0201906F800E020109
:1033F000926FE4CF03F0E4CF02F0E4CF01F0E4CF2A
:1034000000F0E4CFD9FF1200D9CFE5FFE1CFD9FF1B
:1034100000C0E5FF01C0E5FF02C0E5FF42C500F0C6
:1034200005014351020A0BE10050E56EF0EC1CF07F
:10343000016EF3CF02F0E65201500201A56F0501C3
:103440004351030A0BE10050E56ECFEC19F0006E1A
:10345000F3CF01F0E65200500201A56FE4CF02F075
:10346000E4CF01F0E4CF00F0E4CFD9FF1200D9CFD0
:10347000E5FFE1CFD9FF00C0E5FF01C0E5FF02C0D5
:10348000E5FF42C500F005014351010A0BE1005080
:10349000E56E1AEC14F0016EF3CF02F0E652015023
:1034A0000201A56F05014351030A0BE10050E56ECF
:1034B00025EC1CF0006EF3CF01F0E6520050020143
:1034C000A56FE4CF02F0E4CF01F0E4CF00F0E4CF49
:1034D000D9FF1200D9CFE5FFE1CFD9FF00C0E5FF4A
:1034E00001C0E5FF02C0E5FF03C0E5FF020EDBCF30
:1034F00000F0030EDBCF01F0040EDBCF02F0050E6F
:10350000DBCF03F0005001100210031008E0CEECF6
:103510001DF0FF0E0026012202220322F3D7E4CF82
:1035200003F0E4CF02F0E4CF01F0E4CF00F0E4CF09
:10353000D9FF1200D8CFE5FFE0CFE5FFE56EF3CF6E
:10354000E5FFF4CFE5FFE9CFE5FFEACFE5FFFACFEE
:10355000E5FFFBCFE5FFD9CFE5FFE1CFD9FFC2EC17
:103560001BF0630ED66E200EF26EE4CFD9FFE4CFCF
:10357000FBFFE4CFFAFFE4CFEAFFE4CFE9FFE4CFBB
:10358000F4FFE4CFF3FFE450E4CFE0FFE4CFD8FF53
:103590001000D9CFE5FFE1CFD9FF00C0E5FF01C0A2
:1035A000E5FF02C0E5FF03C0E5FF0201AD6B200EA1
:1035B0000401016F400E006E050E016E026A036A7F
:1035C000026A036A00500401026F01500401036F94
:1035D000880E0401006F0401046BE4CF03F0E4CF14
:1035E00002F0E4CF01F0E4CF00F0E4CFD9FF120005
:1035F000D9CFE5FFE1CFD9FF00C0E5FF01C0E5FF6E
:10360000020EDBCF00F000500D0DF450016EF3CF31
:1036100000F0600E0026020E0122040E0026D8B033
:10362000012A00C0E9FF01C0EAFFEECF00F0EFCFB2
:1036300001F001C0F3FF0050E4CF01F0E4CF00F04F
:10364000E4CFD9FF1200D9CFE5FFE1CFD9FF00C009
:10365000E5FF01C0E5FF020EDBCF00F0016A00507C
:1036600004E00050010A0BE00FD0006A80B2002A8B
:103670000050D880E866D890016A013605D0006A0B
:1036800080B0002A00C001F00150E4CF01F0E4CF87
:1036900000F0E4CFD9FF1200D9CFE5FFE1CFD9FF89
:1036A00000C0E5FF01C0E5FF02C0E5FF020EDBCF71
:1036B00000F0030EDBCF01F0040EDBCF02F03F0E73
:1036C000C716C66AC56A0050C6120150C712938257
:1036D000938002C0C8FFC68AE4CF02F0E4CF01F0B5
:1036E000E4CF00F0E4CFD9FF1200D9CFE5FFE1CF5E
:1036F000D9FF00C0E5FF6A6A686A9F0E6B6E7B0E99
:10370000696E6E6A160E706E006A68B6002A005006
:10371000010A02E16896F8D76D98C9EC1AF0020127
:10372000AA6B0201A96B0201AC6B030E0201AB6F25
:10373000E4CF00F0E4CFD9FF1200D9CFE5FFE1CF0D
:10374000D9FF00C0E5FF01C0E5FF020EDBCF00F0AE
:1037500000500D0DF450016EF3CF00F0600E002606
:10376000020E012200C0E9FF01C0EAFFEECF00F027
:10377000EFCF01F00050E4CF01F0E4CF00F0E4CF50
:10378000D9FF1200D9CFE5FFE1CFD9FF0001D32B3C
:103790000201AE510001D35D15E3F2CFE5FFF29EC9
:1037A0000500C00EFD6E370EFE6E000EFF6EE4BE0D
:1037B000F28E95C2FBFF94C2FAFF02019351F96E9B
:1037C0000001D36BE4CFD9FF1200D9CFE5FFE1CFE1
:1037D000D9FF949C948E900EAB6E240EAC6E080EA6
:1037E000B86EB06A670EAF6E0201996B02019A6BF8
:1037F000200E02019B6F0201966B0201976B200E57
:103800000201986FE4CFD9FF1200E8AE0AD0F3CFDF
:10381000EAFFEE50EECFF3FFEECFF4FFEECFE9FF7D
:103820001200E8BC05EF1FF0E9CFF6FFF3CFF7FF7A
:10383000F86E0900F5500900F5CFF3FF0900F5CF48
:10384000F4FF0900F5CFE9FF1200D9CFE5FFE1CF82
:10385000D9FF00C0E5FF020EDBCF00F000500EE103
:10386000020E0001FC6F200E0001FB6F800E0001B4
:10387000FD6F1F0E0001FE6F0001FF6BE4CF00F033
:10388000E4CFD9FF1200D9CFE5FFE1CFD9FF6DB664
:1038900008D06D6A696A6F886F846D86010E0201B7
:1038A000AB6F0201AB51010A09E16DBA07D0686A3A
:1038B000696A69806988020E0201AB6FE4CFD9FFA3
:1038C0001200D9CFE5FFE1CFD9FF0201715102010A
:1038D000721108E1010EE56E010EE56EBFEC15F008
:1038E000E652E652480E0201936F170E0201946FE2
:1038F000000E0201956FE4CFD9FF1200D9CFE5FF8A
:10390000E1CFD9FF020164510201651108E1000E07
:10391000E56E010EE56EBFEC15F0E652E652480E7C
:103920000201936F170E0201946F000E0201956F52
:10393000E4CFD9FF1200D9CFE5FFE1CFD9FF0201D3
:1039400071510201721108E1010EE56E000EE56E83
:10395000BFEC15F0E652E652480E0201936F170EC7
:103960000201946F000E0201956FE4CFD9FF12009F
:10397000D9CFE5FFE1CFD9FF020164510201651102
:1039800008E1000EE56E000EE56EBFEC15F0E652A4
:10399000E652480E0201936F170E0201946F000E5B
:1039A0000201956FE4CFD9FF1200E8AE08D0F3CF43
:1039B000EAFFEE50EECFF3FFEECFF4FF1200E8BCCB
:1039C00003EF1FF0E9CFF6FFF3CFF7FFF86E090022
:1039D000F5500900F5CFF3FF0900F5CFF4FF120011
:1039E000D9CFE5FFE1CFD9FF00C0E5FF020EDBCF65
:1039F00000F0005009E1050E0201916F200E020156
:103A0000906F800E0201926FE4CF00F0E4CFD9FFF7
:103A10001200D9CFE5FFE1CFD9FF00C0E5FF050EC9
:103A20000201AB5D06E3006A6DB2002A0050010A94
:103A300001E102D06FEC04F0E4CF00F0E4CFD9FF55
:103A40001200F2CFEAFFF29EA69EA69CA684E9CFC2
:103A5000A9FFE4CFA8FFD1EC1EF0F4CFA8FFD1EC72
:103A60001EF0F6CFA8FFD1EC1EF0A694EABEF28EAF
:103A70001200F2CFF6FFF29EA69EA69CE9CFA9FF08
:103A8000A680A850A92AA680A8CFF3FFA92AA680BD
:103A9000A8CFF4FFA92AA680A8CFEAFFF6BEF28E2F
:103AA0001200D9CFE5FFE1CFD9FF00C0E5FF020E3C
:103AB000DBCF00F0610E005C05E37B0E005C02E2F0
:103AC000010E01D0E86AE4CF00F0E4CFD9FF120084
:103AD000E8AE06D0F3CFEAFFEE50EECFF3FF1200D0
:103AE000E8BC01EF1FF0E9CFF6FFF3CFF7FFF86E68
:103AF0000900F5500900F5CFF3FF1200D9CFE5FF1B
:103B0000E1CFD9FF00C0E5FF006A70B0002A005085
:103B1000010A03E1C9EC1AF07090689AE4CF00F052
:103B2000E4CFD9FF1200F00E0201B215B26FABACB8
:103B300004D0B291ABA001D0B281ABA402D00201FB
:103B4000B285ABA202D00201B287AE501200F2CF12
:103B5000F6FFF29EA69EA69CE9CFA9FFA680A850DC
:103B6000A92AA680A8CFF3FFA92AA680A8CFF4FF90
:103B7000F6BEF28E1200000000000001010001FFFD
:103B800000FF000001010000FF00FF010000000035
:103B9000000000000000000000000000D9CFE5FF99
:103BA000E1CFD9FF070EB06F7C0EB16FB12FD6EF0A
:103BB0001DF0B02FD6EF1DF0E4CFD9FF1200E8AE14
:103BC00004D0F3CFEAFFEE501200E8BCFFEF1EF086
:103BD000E9CFF6FFF3CFF7FFF86E0900F5501200BA
:103BE000F2CFEAFFF29EA69EA69CA684E9CFA9FF8B
:103BF000E4CFA8FFD1EC1EF0A694EABEF28E12002C
:103C0000F2CFF6FFF29EA69EA69CE9CFA9FFA68062
:103C1000A850A92AA680A8CFF3FFF6BEF28E120004
:103C2000E8AE09D0F3CFEAFFE4CFEEFFF4CFEEFF2A
:103C3000F6CFEEFF1200E8BC09EF1FF01200D9CF5B
:103C4000E5FFE1CFD9FFC30ED56E630ED66EA00E91
:103C5000F26EE4CFD9FF1200D9CFE5FFE1CFD9FF53
:103C6000020EDBCFC9FFA5EC1EF0E86AE4CFD9FF56
:103C70001200F2CFF6FFF29EA69EA69CE9CFA9FF06
:103C8000A680A850F6BEF28E1200D9CFE5FFE1CF94
:103C9000D9FFC586A5EC1EF0C950E4CFD9FF1200AC
:103CA000D9CFE5FFE1CFD9FFC58AC588A5EC1EF0C5
:103CB000E4CFD9FF1200D9CFE5FFE1CFD9FFC59AF4
:103CC000C588A5EC1EF0E4CFD9FF1200D9CFE5FFDF
:103CD000E1CFD9FF9E96C584A5EC1EF0E4CFD9FFB5
:103CE0001200D9CFE5FFE1CFD9FF9E96C580A5ECA4
:103CF0001EF0E4CFD9FF1200E8AE05D0F3CFEAFF03
:103D0000E4CFEEFF1200E8BC07EF1FF01200D9CF9E
:103D1000E5FFE1CFD9FF6D9269946894E4CFD9FFB4
:103D20001200D9CFE5FFE1CFD9FF020EDBCFB5F00E
:103D3000E4CFD9FF1200D9CFE5FFE1CFD9FF020EC2
:103D4000DBCFB6F0E4CFD9FF1200D9CFE5FFE1CF4A
:103D5000D9FF9EA6FED79E96E4CFD9FF1200D9CFF9
:103D6000E5FFE1CFD9FFC582A5EC1EF0E4CFD9FF76
:103D70001200D9CFE5FFE1CFD9FF689CE4CFD9FF8E
:103D80001200ACAC04D0AC900201B2B3AC80AD6E0A
:103D90001200D9CFE5FFE1CFD9FF1200E4CFD9FF60
:103DA0001200550EA76EAA0EA76EA682A6B2FED767
:103DB000A94AD9CFE5FFE1CFD9FFE4CFD9FF12005F
:103DC000D9CFE5FFE1CFD9FFE4CFD9FF1200010041
:103DD000763B0000B000000025000000F2B49AEF2E
:103DE0001AF01000000E9EBA010F1200ACA2FED70E
:103DF000AD6E1200E8CF7FFF1200C96E120039EFDE
:103E00001EF000EF1EF0A7EF1DF039EF1DF0F0EFF0
:063E10001DF021EF1DF082
:020000040030CA
:0E000000240E3800FF8181FFFFFFFFFFFFFF8E
:0200000400F00A
:1000000000000100020003000400050006000700D4
:100010003000310032003300340035003600370044
:10002000380039006100620063006400650066000A
:00000001FF
